{
  "contractName": "ComposableNFT",
  "abi": [
    {
      "anonymous": false,
      "inputs": [
        {
          "indexed": true,
          "internalType": "address",
          "name": "owner",
          "type": "address"
        },
        {
          "indexed": true,
          "internalType": "address",
          "name": "approved",
          "type": "address"
        },
        {
          "indexed": true,
          "internalType": "uint256",
          "name": "tokenId",
          "type": "uint256"
        }
      ],
      "name": "Approval",
      "type": "event"
    },
    {
      "anonymous": false,
      "inputs": [
        {
          "indexed": true,
          "internalType": "address",
          "name": "owner",
          "type": "address"
        },
        {
          "indexed": true,
          "internalType": "address",
          "name": "operator",
          "type": "address"
        },
        {
          "indexed": false,
          "internalType": "bool",
          "name": "approved",
          "type": "bool"
        }
      ],
      "name": "ApprovalForAll",
      "type": "event"
    },
    {
      "anonymous": false,
      "inputs": [
        {
          "indexed": false,
          "internalType": "address",
          "name": "_erc20Contract",
          "type": "address"
        }
      ],
      "name": "DaiSupported",
      "type": "event"
    },
    {
      "anonymous": false,
      "inputs": [
        {
          "indexed": false,
          "internalType": "address",
          "name": "_erc20Contract",
          "type": "address"
        }
      ],
      "name": "NotSupportedDai",
      "type": "event"
    },
    {
      "anonymous": false,
      "inputs": [
        {
          "indexed": true,
          "internalType": "address",
          "name": "_from",
          "type": "address"
        },
        {
          "indexed": true,
          "internalType": "uint256",
          "name": "_tokenId",
          "type": "uint256"
        },
        {
          "indexed": true,
          "internalType": "address",
          "name": "_erc20Contract",
          "type": "address"
        },
        {
          "indexed": false,
          "internalType": "uint256",
          "name": "_value",
          "type": "uint256"
        }
      ],
      "name": "ReceivedERC20",
      "type": "event"
    },
    {
      "anonymous": false,
      "inputs": [
        {
          "indexed": true,
          "internalType": "address",
          "name": "from",
          "type": "address"
        },
        {
          "indexed": true,
          "internalType": "address",
          "name": "to",
          "type": "address"
        },
        {
          "indexed": true,
          "internalType": "uint256",
          "name": "tokenId",
          "type": "uint256"
        }
      ],
      "name": "Transfer",
      "type": "event"
    },
    {
      "anonymous": false,
      "inputs": [
        {
          "indexed": true,
          "internalType": "uint256",
          "name": "_tokenId",
          "type": "uint256"
        },
        {
          "indexed": true,
          "internalType": "address",
          "name": "_to",
          "type": "address"
        },
        {
          "indexed": true,
          "internalType": "address",
          "name": "_erc20Contract",
          "type": "address"
        },
        {
          "indexed": false,
          "internalType": "uint256",
          "name": "_value",
          "type": "uint256"
        }
      ],
      "name": "TransferERC20",
      "type": "event"
    },
    {
      "inputs": [
        {
          "internalType": "address",
          "name": "to",
          "type": "address"
        },
        {
          "internalType": "uint256",
          "name": "tokenId",
          "type": "uint256"
        }
      ],
      "name": "approve",
      "outputs": [],
      "stateMutability": "nonpayable",
      "type": "function"
    },
    {
      "inputs": [
        {
          "internalType": "address",
          "name": "owner",
          "type": "address"
        }
      ],
      "name": "balanceOf",
      "outputs": [
        {
          "internalType": "uint256",
          "name": "",
          "type": "uint256"
        }
      ],
      "stateMutability": "view",
      "type": "function"
    },
    {
      "inputs": [
        {
          "internalType": "uint256",
          "name": "tokenId",
          "type": "uint256"
        }
      ],
      "name": "getApproved",
      "outputs": [
        {
          "internalType": "address",
          "name": "",
          "type": "address"
        }
      ],
      "stateMutability": "view",
      "type": "function"
    },
    {
      "inputs": [
        {
          "internalType": "address",
          "name": "owner",
          "type": "address"
        },
        {
          "internalType": "address",
          "name": "operator",
          "type": "address"
        }
      ],
      "name": "isApprovedForAll",
      "outputs": [
        {
          "internalType": "bool",
          "name": "",
          "type": "bool"
        }
      ],
      "stateMutability": "view",
      "type": "function"
    },
    {
      "inputs": [],
      "name": "name",
      "outputs": [
        {
          "internalType": "string",
          "name": "",
          "type": "string"
        }
      ],
      "stateMutability": "view",
      "type": "function"
    },
    {
      "inputs": [
        {
          "internalType": "uint256",
          "name": "tokenId",
          "type": "uint256"
        }
      ],
      "name": "ownerOf",
      "outputs": [
        {
          "internalType": "address",
          "name": "",
          "type": "address"
        }
      ],
      "stateMutability": "view",
      "type": "function"
    },
    {
      "inputs": [
        {
          "internalType": "address",
          "name": "from",
          "type": "address"
        },
        {
          "internalType": "address",
          "name": "to",
          "type": "address"
        },
        {
          "internalType": "uint256",
          "name": "tokenId",
          "type": "uint256"
        }
      ],
      "name": "safeTransferFrom",
      "outputs": [],
      "stateMutability": "nonpayable",
      "type": "function"
    },
    {
      "inputs": [
        {
          "internalType": "address",
          "name": "from",
          "type": "address"
        },
        {
          "internalType": "address",
          "name": "to",
          "type": "address"
        },
        {
          "internalType": "uint256",
          "name": "tokenId",
          "type": "uint256"
        },
        {
          "internalType": "bytes",
          "name": "_data",
          "type": "bytes"
        }
      ],
      "name": "safeTransferFrom",
      "outputs": [],
      "stateMutability": "nonpayable",
      "type": "function"
    },
    {
      "inputs": [
        {
          "internalType": "address",
          "name": "operator",
          "type": "address"
        },
        {
          "internalType": "bool",
          "name": "approved",
          "type": "bool"
        }
      ],
      "name": "setApprovalForAll",
      "outputs": [],
      "stateMutability": "nonpayable",
      "type": "function"
    },
    {
      "inputs": [
        {
          "internalType": "bytes4",
          "name": "interfaceId",
          "type": "bytes4"
        }
      ],
      "name": "supportsInterface",
      "outputs": [
        {
          "internalType": "bool",
          "name": "",
          "type": "bool"
        }
      ],
      "stateMutability": "view",
      "type": "function"
    },
    {
      "inputs": [],
      "name": "symbol",
      "outputs": [
        {
          "internalType": "string",
          "name": "",
          "type": "string"
        }
      ],
      "stateMutability": "view",
      "type": "function"
    },
    {
      "inputs": [
        {
          "internalType": "uint256",
          "name": "tokenId",
          "type": "uint256"
        }
      ],
      "name": "tokenURI",
      "outputs": [
        {
          "internalType": "string",
          "name": "",
          "type": "string"
        }
      ],
      "stateMutability": "view",
      "type": "function"
    },
    {
      "inputs": [
        {
          "internalType": "address",
          "name": "from",
          "type": "address"
        },
        {
          "internalType": "address",
          "name": "to",
          "type": "address"
        },
        {
          "internalType": "uint256",
          "name": "tokenId",
          "type": "uint256"
        }
      ],
      "name": "transferFrom",
      "outputs": [],
      "stateMutability": "nonpayable",
      "type": "function"
    },
    {
      "inputs": [
        {
          "internalType": "address",
          "name": "_recipient",
          "type": "address"
        }
      ],
      "name": "mint",
      "outputs": [
        {
          "internalType": "uint256",
          "name": "",
          "type": "uint256"
        }
      ],
      "stateMutability": "nonpayable",
      "type": "function"
    },
    {
      "inputs": [
        {
          "internalType": "uint256",
          "name": "_tokenId",
          "type": "uint256"
        },
        {
          "internalType": "address",
          "name": "_erc20Contract",
          "type": "address"
        }
      ],
      "name": "balanceOfERC20",
      "outputs": [
        {
          "internalType": "uint256",
          "name": "",
          "type": "uint256"
        }
      ],
      "stateMutability": "view",
      "type": "function"
    },
    {
      "inputs": [
        {
          "internalType": "address",
          "name": "_from",
          "type": "address"
        },
        {
          "internalType": "uint256",
          "name": "_tokenId",
          "type": "uint256"
        },
        {
          "internalType": "address",
          "name": "_erc20Contract",
          "type": "address"
        },
        {
          "internalType": "uint256",
          "name": "_value",
          "type": "uint256"
        }
      ],
      "name": "getERC20",
      "outputs": [],
      "stateMutability": "nonpayable",
      "type": "function"
    },
    {
      "inputs": [
        {
          "internalType": "uint256",
          "name": "_tokenId",
          "type": "uint256"
        },
        {
          "internalType": "address",
          "name": "_to",
          "type": "address"
        },
        {
          "internalType": "address",
          "name": "_erc20Contract",
          "type": "address"
        },
        {
          "internalType": "uint256",
          "name": "_value",
          "type": "uint256"
        }
      ],
      "name": "transferERC20",
      "outputs": [],
      "stateMutability": "nonpayable",
      "type": "function"
    },
    {
      "inputs": [
        {
          "internalType": "address",
          "name": "_from",
          "type": "address"
        },
        {
          "internalType": "uint256",
          "name": "_value",
          "type": "uint256"
        },
        {
          "internalType": "bytes",
          "name": "_data",
          "type": "bytes"
        }
      ],
      "name": "tokenFallback",
      "outputs": [],
      "stateMutability": "nonpayable",
      "type": "function"
    }
  ],
  "bytecode": "0x608060405273e0fba4fc209b4948668006b2be61711b7f465bae600760006101000a81548173ffffffffffffffffffffffffffffffffffffffff021916908373ffffffffffffffffffffffffffffffffffffffff1602179055507399b267b9d96616f906d53c26decf3c5672401282600860006101000a81548173ffffffffffffffffffffffffffffffffffffffff021916908373ffffffffffffffffffffffffffffffffffffffff160217905550739488ff6f29ff75bfdf8cd5a95c6aa679bc7cd65c600960006101000a81548173ffffffffffffffffffffffffffffffffffffffff021916908373ffffffffffffffffffffffffffffffffffffffff1602179055503480156200011057600080fd5b506040518060400160405280600c81526020017f4d79436f6d706f7361626c6500000000000000000000000000000000000000008152506040518060400160405280600381526020017f4d59430000000000000000000000000000000000000000000000000000000000815250816000908051906020019062000195929190620001b7565b508060019080519060200190620001ae929190620001b7565b505050620002cc565b828054620001c59062000267565b90600052602060002090601f016020900481019282620001e9576000855562000235565b82601f106200020457805160ff191683800117855562000235565b8280016001018555821562000235579182015b828111156200023457825182559160200191906001019062000217565b5b50905062000244919062000248565b5090565b5b808211156200026357600081600090555060010162000249565b5090565b600060028204905060018216806200028057607f821691505b602082108114156200029757620002966200029d565b5b50919050565b7f4e487b7100000000000000000000000000000000000000000000000000000000600052602260045260246000fd5b613fc580620002dc6000396000f3fe608060405234801561001057600080fd5b50600436106101165760003560e01c806370a08231116100a2578063b88d4fde11610071578063b88d4fde146102ef578063c0ee0b8a1461030b578063c87b56dd14610327578063e226ed2214610357578063e985e9c51461038757610116565b806370a0823114610269578063830ef41b1461029957806395d89b41146102b5578063a22cb465146102d357610116565b8063095ea7b3116100e9578063095ea7b3146101b557806323b872dd146101d157806342842e0e146101ed5780636352211e146102095780636a6278421461023957610116565b806301ffc9a71461011b57806306fdde031461014b57806307cff6f214610169578063081812fc14610185575b600080fd5b61013560048036038101906101309190612a5c565b6103b7565b6040516101429190613145565b60405180910390f35b610153610499565b6040516101609190613160565b60405180910390f35b610183600480360381019061017e9190612954565b61052b565b005b61019f600480360381019061019a9190612ab6565b610909565b6040516101ac9190613002565b60405180910390f35b6101cf60048036038101906101ca9190612914565b61098e565b005b6101eb60048036038101906101e691906127fe565b610aa6565b005b610207600480360381019061020291906127fe565b610b06565b005b610223600480360381019061021e9190612ab6565b610b26565b6040516102309190613002565b60405180910390f35b610253600480360381019061024e9190612791565b610bd8565b6040516102609190613482565b60405180910390f35b610283600480360381019061027e9190612791565b610c04565b6040516102909190613482565b60405180910390f35b6102b360048036038101906102ae9190612b50565b610cbc565b005b6102bd610f0f565b6040516102ca9190613160565b60405180910390f35b6102ed60048036038101906102e891906128d4565b610fa1565b005b61030960048036038101906103049190612851565b610fb7565b005b610325600480360381019061032091906129bb565b611019565b005b610341600480360381019061033c9190612ab6565b6110f0565b60405161034e9190613160565b60405180910390f35b610371600480360381019061036c9190612b10565b611197565b60405161037e9190613482565b60405180910390f35b6103a1600480360381019061039c91906127be565b6111f2565b6040516103ae9190613145565b60405180910390f35b60007f80ac58cd000000000000000000000000000000000000000000000000000000007bffffffffffffffffffffffffffffffffffffffffffffffffffffffff1916827bffffffffffffffffffffffffffffffffffffffffffffffffffffffff1916148061048257507f5b5e139f000000000000000000000000000000000000000000000000000000007bffffffffffffffffffffffffffffffffffffffffffffffffffffffff1916827bffffffffffffffffffffffffffffffffffffffffffffffffffffffff1916145b80610492575061049182611286565b5b9050919050565b6060600080546104a890613721565b80601f01602080910402602001604051908101604052809291908181526020018280546104d490613721565b80156105215780601f106104f657610100808354040283529160200191610521565b820191906000526020600020905b81548152906001019060200180831161050457829003601f168201915b5050505050905090565b3373ffffffffffffffffffffffffffffffffffffffff168473ffffffffffffffffffffffffffffffffffffffff1614610599576040517f08c379a0000000000000000000000000000000000000000000000000000000008152600401610590906133e2565b60405180910390fd5b6105a5848484846112f0565b8173ffffffffffffffffffffffffffffffffffffffff166323b872dd8530846040518463ffffffff1660e01b81526004016105e29392919061301d565b602060405180830381600087803b1580156105fc57600080fd5b505af1158015610610573d6000803e3d6000fd5b505050506040513d601f19601f820116820180604052508101906106349190612a2f565b610673576040517f08c379a000000000000000000000000000000000000000000000000000000000815260040161066a90613322565b60405180910390fd5b600860009054906101000a900473ffffffffffffffffffffffffffffffffffffffff1673ffffffffffffffffffffffffffffffffffffffff168273ffffffffffffffffffffffffffffffffffffffff1614156108cb57600860009054906101000a900473ffffffffffffffffffffffffffffffffffffffff1673ffffffffffffffffffffffffffffffffffffffff1663095ea7b3600760009054906101000a900473ffffffffffffffffffffffffffffffffffffffff16836040518363ffffffff1660e01b81526004016107489291906130a0565b602060405180830381600087803b15801561076257600080fd5b505af1158015610776573d6000803e3d6000fd5b505050506040513d601f19601f8201168201806040525081019061079a9190612a2f565b6107d9576040517f08c379a00000000000000000000000000000000000000000000000000000000081526004016107d090613462565b60405180910390fd5b600760009054906101000a900473ffffffffffffffffffffffffffffffffffffffff1673ffffffffffffffffffffffffffffffffffffffff1663e8eda9df600860009054906101000a900473ffffffffffffffffffffffffffffffffffffffff16833060006040518563ffffffff1660e01b815260040161085d9493929190613100565b600060405180830381600087803b15801561087757600080fd5b505af115801561088b573d6000803e3d6000fd5b505050507fead17bb188f0b029634bc684007af3833c36b36cc42ee2b2d53e5632d7406bb3826040516108be9190613002565b60405180910390a1610903565b7fb2f48ae78c9486263c2601175c0056e6f1e56607004be149ae5989f7eb491779826040516108fa9190613002565b60405180910390a15b50505050565b600061091482611552565b610953576040517f08c379a000000000000000000000000000000000000000000000000000000000815260040161094a90613362565b60405180910390fd5b6004600083815260200190815260200160002060009054906101000a900473ffffffffffffffffffffffffffffffffffffffff169050919050565b600061099982610b26565b90508073ffffffffffffffffffffffffffffffffffffffff168373ffffffffffffffffffffffffffffffffffffffff161415610a0a576040517f08c379a0000000000000000000000000000000000000000000000000000000008152600401610a01906133a2565b60405180910390fd5b8073ffffffffffffffffffffffffffffffffffffffff16610a296115be565b73ffffffffffffffffffffffffffffffffffffffff161480610a585750610a5781610a526115be565b6111f2565b5b610a97576040517f08c379a0000000000000000000000000000000000000000000000000000000008152600401610a8e906132a2565b60405180910390fd5b610aa183836115c6565b505050565b610ab7610ab16115be565b8261167f565b610af6576040517f08c379a0000000000000000000000000000000000000000000000000000000008152600401610aed90613402565b60405180910390fd5b610b0183838361175d565b505050565b610b2183838360405180602001604052806000815250610fb7565b505050565b6000806002600084815260200190815260200160002060009054906101000a900473ffffffffffffffffffffffffffffffffffffffff169050600073ffffffffffffffffffffffffffffffffffffffff168173ffffffffffffffffffffffffffffffffffffffff161415610bcf576040517f08c379a0000000000000000000000000000000000000000000000000000000008152600401610bc690613302565b60405180910390fd5b80915050919050565b600080610be560066119c4565b9050610bf160066119d2565b610bfb83826119e8565b80915050919050565b60008073ffffffffffffffffffffffffffffffffffffffff168273ffffffffffffffffffffffffffffffffffffffff161415610c75576040517f08c379a0000000000000000000000000000000000000000000000000000000008152600401610c6c906132e2565b60405180910390fd5b600360008373ffffffffffffffffffffffffffffffffffffffff1673ffffffffffffffffffffffffffffffffffffffff168152602001908152602001600020549050919050565b600073ffffffffffffffffffffffffffffffffffffffff168373ffffffffffffffffffffffffffffffffffffffff161415610d2c576040517f08c379a0000000000000000000000000000000000000000000000000000000008152600401610d23906132c2565b60405180910390fd5b610d36338561167f565b610d75576040517f08c379a0000000000000000000000000000000000000000000000000000000008152600401610d6c90613242565b60405180910390fd5b610d8184838386611bc2565b600860009054906101000a900473ffffffffffffffffffffffffffffffffffffffff1673ffffffffffffffffffffffffffffffffffffffff168273ffffffffffffffffffffffffffffffffffffffff1614610f09578173ffffffffffffffffffffffffffffffffffffffff1663a9059cbb84836040518363ffffffff1660e01b8152600401610e119291906130a0565b602060405180830381600087803b158015610e2b57600080fd5b505af1158015610e3f573d6000803e3d6000fd5b505050506040513d601f19601f82011682018060405250810190610e639190612a2f565b610ea2576040517f08c379a0000000000000000000000000000000000000000000000000000000008152600401610e9990613322565b60405180910390fd5b8173ffffffffffffffffffffffffffffffffffffffff168373ffffffffffffffffffffffffffffffffffffffff16857fa8352277873fc0d2b233b8127433da351a4164fa701ed6ff79655694222932c484604051610f009190613482565b60405180910390a45b50505050565b606060018054610f1e90613721565b80601f0160208091040260200160405190810160405280929190818152602001828054610f4a90613721565b8015610f975780601f10610f6c57610100808354040283529160200191610f97565b820191906000526020600020905b815481529060010190602001808311610f7a57829003601f168201915b5050505050905090565b610fb3610fac6115be565b8383612133565b5050565b610fc8610fc26115be565b8361167f565b611007576040517f08c379a0000000000000000000000000000000000000000000000000000000008152600401610ffe90613402565b60405180910390fd5b611013848484846122a0565b50505050565b6000828290501161105f576040517f08c379a000000000000000000000000000000000000000000000000000000000815260040161105690613442565b60405180910390fd5b611068336122fc565b6110a7576040517f08c379a000000000000000000000000000000000000000000000000000000000815260040161109e906133c2565b60405180910390fd5b6000608435905060208383905010156110dd576008838390506110ca91906135bd565b6101006110d79190613617565b81901c90505b6110e9858233876112f0565b5050505050565b60606110fb82611552565b61113a576040517f08c379a000000000000000000000000000000000000000000000000000000000815260040161113190613382565b60405180910390fd5b600061114461231f565b90506000815111611164576040518060200160405280600081525061118f565b8061116e84612336565b60405160200161117f929190612fde565b6040516020818303038152906040525b915050919050565b6000600d600084815260200190815260200160002060008373ffffffffffffffffffffffffffffffffffffffff1673ffffffffffffffffffffffffffffffffffffffff16815260200190815260200160002054905092915050565b6000600560008473ffffffffffffffffffffffffffffffffffffffff1673ffffffffffffffffffffffffffffffffffffffff16815260200190815260200160002060008373ffffffffffffffffffffffffffffffffffffffff1673ffffffffffffffffffffffffffffffffffffffff16815260200190815260200160002060009054906101000a900460ff16905092915050565b60007f01ffc9a7000000000000000000000000000000000000000000000000000000007bffffffffffffffffffffffffffffffffffffffffffffffffffffffff1916827bffffffffffffffffffffffffffffffffffffffffffffffffffffffff1916149050919050565b6112f983611552565b611338576040517f08c379a000000000000000000000000000000000000000000000000000000000815260040161132f90613422565b60405180910390fd5b60008114156113465761154c565b6000600d600085815260200190815260200160002060008473ffffffffffffffffffffffffffffffffffffffff1673ffffffffffffffffffffffffffffffffffffffff168152602001908152602001600020549050600081141561148457600b600085815260200190815260200160002080549050600c600086815260200190815260200160002060008573ffffffffffffffffffffffffffffffffffffffff1673ffffffffffffffffffffffffffffffffffffffff16815260200190815260200160002081905550600b6000858152602001908152602001600020839080600181540180825580915050600190039060005260206000200160009091909190916101000a81548173ffffffffffffffffffffffffffffffffffffffff021916908373ffffffffffffffffffffffffffffffffffffffff1602179055505b81816114909190613536565b600d600086815260200190815260200160002060008573ffffffffffffffffffffffffffffffffffffffff1673ffffffffffffffffffffffffffffffffffffffff168152602001908152602001600020819055508273ffffffffffffffffffffffffffffffffffffffff16848673ffffffffffffffffffffffffffffffffffffffff167f684ce28ace37552c6bfb98b7cceda8ed55327078eafb5dfb31218e0856382763856040516115429190613482565b60405180910390a4505b50505050565b60008073ffffffffffffffffffffffffffffffffffffffff166002600084815260200190815260200160002060009054906101000a900473ffffffffffffffffffffffffffffffffffffffff1673ffffffffffffffffffffffffffffffffffffffff1614159050919050565b600033905090565b816004600083815260200190815260200160002060006101000a81548173ffffffffffffffffffffffffffffffffffffffff021916908373ffffffffffffffffffffffffffffffffffffffff160217905550808273ffffffffffffffffffffffffffffffffffffffff1661163983610b26565b73ffffffffffffffffffffffffffffffffffffffff167f8c5be1e5ebec7d5bd14f71427d1e84f3dd0314c0f7b2291e5b200ac8c7c3b92560405160405180910390a45050565b600061168a82611552565b6116c9576040517f08c379a00000000000000000000000000000000000000000000000000000000081526004016116c090613282565b60405180910390fd5b60006116d483610b26565b90508073ffffffffffffffffffffffffffffffffffffffff168473ffffffffffffffffffffffffffffffffffffffff161480611716575061171581856111f2565b5b8061175457508373ffffffffffffffffffffffffffffffffffffffff1661173c84610909565b73ffffffffffffffffffffffffffffffffffffffff16145b91505092915050565b8273ffffffffffffffffffffffffffffffffffffffff1661177d82610b26565b73ffffffffffffffffffffffffffffffffffffffff16146117d3576040517f08c379a00000000000000000000000000000000000000000000000000000000081526004016117ca906131c2565b60405180910390fd5b600073ffffffffffffffffffffffffffffffffffffffff168273ffffffffffffffffffffffffffffffffffffffff161415611843576040517f08c379a000000000000000000000000000000000000000000000000000000000815260040161183a90613222565b60405180910390fd5b61184e838383612497565b6118596000826115c6565b6001600360008573ffffffffffffffffffffffffffffffffffffffff1673ffffffffffffffffffffffffffffffffffffffff16815260200190815260200160002060008282546118a99190613617565b925050819055506001600360008473ffffffffffffffffffffffffffffffffffffffff1673ffffffffffffffffffffffffffffffffffffffff16815260200190815260200160002060008282546119009190613536565b92505081905550816002600083815260200190815260200160002060006101000a81548173ffffffffffffffffffffffffffffffffffffffff021916908373ffffffffffffffffffffffffffffffffffffffff160217905550808273ffffffffffffffffffffffffffffffffffffffff168473ffffffffffffffffffffffffffffffffffffffff167fddf252ad1be2c89b69c2b068fc378daa952ba7f163c4a11628f55a4df523b3ef60405160405180910390a46119bf83838361249c565b505050565b600081600001549050919050565b6001816000016000828254019250508190555050565b600073ffffffffffffffffffffffffffffffffffffffff168273ffffffffffffffffffffffffffffffffffffffff161415611a58576040517f08c379a0000000000000000000000000000000000000000000000000000000008152600401611a4f90613342565b60405180910390fd5b611a6181611552565b15611aa1576040517f08c379a0000000000000000000000000000000000000000000000000000000008152600401611a98906131e2565b60405180910390fd5b611aad60008383612497565b6001600360008473ffffffffffffffffffffffffffffffffffffffff1673ffffffffffffffffffffffffffffffffffffffff1681526020019081526020016000206000828254611afd9190613536565b92505081905550816002600083815260200190815260200160002060006101000a81548173ffffffffffffffffffffffffffffffffffffffff021916908373ffffffffffffffffffffffffffffffffffffffff160217905550808273ffffffffffffffffffffffffffffffffffffffff16600073ffffffffffffffffffffffffffffffffffffffff167fddf252ad1be2c89b69c2b068fc378daa952ba7f163c4a11628f55a4df523b3ef60405160405180910390a4611bbe6000838361249c565b5050565b6000821415611bd05761212d565b6000600d600086815260200190815260200160002060008573ffffffffffffffffffffffffffffffffffffffff1673ffffffffffffffffffffffffffffffffffffffff16815260200190815260200160002054905082811015611c68576040517f08c379a0000000000000000000000000000000000000000000000000000000008152600401611c5f90613202565b60405180910390fd5b60008382611c769190613617565b905080600d600088815260200190815260200160002060008773ffffffffffffffffffffffffffffffffffffffff1673ffffffffffffffffffffffffffffffffffffffff168152602001908152602001600020819055506000811415611ef95760006001600b600089815260200190815260200160002080549050611cfb9190613617565b90506000600b60008981526020019081526020016000208281548110611d2457611d236138ba565b5b9060005260206000200160009054906101000a900473ffffffffffffffffffffffffffffffffffffffff1690508073ffffffffffffffffffffffffffffffffffffffff168773ffffffffffffffffffffffffffffffffffffffff1614611e9e576000600c60008a815260200190815260200160002060008973ffffffffffffffffffffffffffffffffffffffff1673ffffffffffffffffffffffffffffffffffffffff16815260200190815260200160002054905081600b60008b81526020019081526020016000208281548110611dff57611dfe6138ba565b5b9060005260206000200160006101000a81548173ffffffffffffffffffffffffffffffffffffffff021916908373ffffffffffffffffffffffffffffffffffffffff16021790555080600c60008b815260200190815260200160002060008473ffffffffffffffffffffffffffffffffffffffff1673ffffffffffffffffffffffffffffffffffffffff16815260200190815260200160002081905550505b600b6000898152602001908152602001600020805480611ec157611ec061388b565b5b6001900381819060005260206000200160006101000a81549073ffffffffffffffffffffffffffffffffffffffff0219169055905550505b600860009054906101000a900473ffffffffffffffffffffffffffffffffffffffff1673ffffffffffffffffffffffffffffffffffffffff168573ffffffffffffffffffffffffffffffffffffffff1614156120f25783600d600088815260200190815260200160002060008773ffffffffffffffffffffffffffffffffffffffff1673ffffffffffffffffffffffffffffffffffffffff168152602001908152602001600020541115611fe2576040517f08c379a0000000000000000000000000000000000000000000000000000000008152600401611fd990613182565b60405180910390fd5b600760009054906101000a900473ffffffffffffffffffffffffffffffffffffffff1673ffffffffffffffffffffffffffffffffffffffff166369328dec600860009054906101000a900473ffffffffffffffffffffffffffffffffffffffff1686866040518463ffffffff1660e01b8152600401612063939291906130c9565b602060405180830381600087803b15801561207d57600080fd5b505af1158015612091573d6000803e3d6000fd5b505050506040513d601f19601f820116820180604052508101906120b59190612ae3565b507fead17bb188f0b029634bc684007af3833c36b36cc42ee2b2d53e5632d7406bb3856040516120e59190613002565b60405180910390a161212a565b7fb2f48ae78c9486263c2601175c0056e6f1e56607004be149ae5989f7eb491779856040516121219190613002565b60405180910390a15b50505b50505050565b8173ffffffffffffffffffffffffffffffffffffffff168373ffffffffffffffffffffffffffffffffffffffff1614156121a2576040517f08c379a000000000000000000000000000000000000000000000000000000000815260040161219990613262565b60405180910390fd5b80600560008573ffffffffffffffffffffffffffffffffffffffff1673ffffffffffffffffffffffffffffffffffffffff16815260200190815260200160002060008473ffffffffffffffffffffffffffffffffffffffff1673ffffffffffffffffffffffffffffffffffffffff16815260200190815260200160002060006101000a81548160ff0219169083151502179055508173ffffffffffffffffffffffffffffffffffffffff168373ffffffffffffffffffffffffffffffffffffffff167f17307eab39ab6107e8899845ad3d59bd9653f200f220920489ca2b5937696c31836040516122939190613145565b60405180910390a3505050565b6122ab84848461175d565b6122b7848484846124a1565b6122f6576040517f08c379a00000000000000000000000000000000000000000000000000000000081526004016122ed906131a2565b60405180910390fd5b50505050565b6000808273ffffffffffffffffffffffffffffffffffffffff163b119050919050565b606060405180602001604052806000815250905090565b6060600082141561237e576040518060400160405280600181526020017f30000000000000000000000000000000000000000000000000000000000000008152509050612492565b600082905060005b600082146123b057808061239990613784565b915050600a826123a9919061358c565b9150612386565b60008167ffffffffffffffff8111156123cc576123cb6138e9565b5b6040519080825280601f01601f1916602001820160405280156123fe5781602001600182028036833780820191505090505b5090505b6000851461248b576001826124179190613617565b9150600a8561242691906137cd565b60306124329190613536565b60f81b818381518110612448576124476138ba565b5b60200101907effffffffffffffffffffffffffffffffffffffffffffffffffffffffffffff1916908160001a905350600a85612484919061358c565b9450612402565b8093505050505b919050565b505050565b505050565b60006124c28473ffffffffffffffffffffffffffffffffffffffff166122fc565b1561262b578373ffffffffffffffffffffffffffffffffffffffff1663150b7a026124eb6115be565b8786866040518563ffffffff1660e01b815260040161250d9493929190613054565b602060405180830381600087803b15801561252757600080fd5b505af192505050801561255857506040513d601f19601f820116820180604052508101906125559190612a89565b60015b6125db573d8060008114612588576040519150601f19603f3d011682016040523d82523d6000602084013e61258d565b606091505b506000815114156125d3576040517f08c379a00000000000000000000000000000000000000000000000000000000081526004016125ca906131a2565b60405180910390fd5b805181602001fd5b63150b7a0260e01b7bffffffffffffffffffffffffffffffffffffffffffffffffffffffff1916817bffffffffffffffffffffffffffffffffffffffffffffffffffffffff191614915050612630565b600190505b949350505050565b600061264b612646846134c2565b61349d565b90508281526020810184848401111561266757612666613927565b5b6126728482856136df565b509392505050565b60008135905061268981613f33565b92915050565b60008135905061269e81613f4a565b92915050565b6000815190506126b381613f4a565b92915050565b6000813590506126c881613f61565b92915050565b6000815190506126dd81613f61565b92915050565b60008083601f8401126126f9576126f861391d565b5b8235905067ffffffffffffffff81111561271657612715613918565b5b60208301915083600182028301111561273257612731613922565b5b9250929050565b600082601f83011261274e5761274d61391d565b5b813561275e848260208601612638565b91505092915050565b60008135905061277681613f78565b92915050565b60008151905061278b81613f78565b92915050565b6000602082840312156127a7576127a6613931565b5b60006127b58482850161267a565b91505092915050565b600080604083850312156127d5576127d4613931565b5b60006127e38582860161267a565b92505060206127f48582860161267a565b9150509250929050565b60008060006060848603121561281757612816613931565b5b60006128258682870161267a565b93505060206128368682870161267a565b925050604061284786828701612767565b9150509250925092565b6000806000806080858703121561286b5761286a613931565b5b60006128798782880161267a565b945050602061288a8782880161267a565b935050604061289b87828801612767565b925050606085013567ffffffffffffffff8111156128bc576128bb61392c565b5b6128c887828801612739565b91505092959194509250565b600080604083850312156128eb576128ea613931565b5b60006128f98582860161267a565b925050602061290a8582860161268f565b9150509250929050565b6000806040838503121561292b5761292a613931565b5b60006129398582860161267a565b925050602061294a85828601612767565b9150509250929050565b6000806000806080858703121561296e5761296d613931565b5b600061297c8782880161267a565b945050602061298d87828801612767565b935050604061299e8782880161267a565b92505060606129af87828801612767565b91505092959194509250565b600080600080606085870312156129d5576129d4613931565b5b60006129e38782880161267a565b94505060206129f487828801612767565b935050604085013567ffffffffffffffff811115612a1557612a1461392c565b5b612a21878288016126e3565b925092505092959194509250565b600060208284031215612a4557612a44613931565b5b6000612a53848285016126a4565b91505092915050565b600060208284031215612a7257612a71613931565b5b6000612a80848285016126b9565b91505092915050565b600060208284031215612a9f57612a9e613931565b5b6000612aad848285016126ce565b91505092915050565b600060208284031215612acc57612acb613931565b5b6000612ada84828501612767565b91505092915050565b600060208284031215612af957612af8613931565b5b6000612b078482850161277c565b91505092915050565b60008060408385031215612b2757612b26613931565b5b6000612b3585828601612767565b9250506020612b468582860161267a565b9150509250929050565b60008060008060808587031215612b6a57612b69613931565b5b6000612b7887828801612767565b9450506020612b898782880161267a565b9350506040612b9a8782880161267a565b9250506060612bab87828801612767565b91505092959194509250565b612bc08161364b565b82525050565b612bcf8161365d565b82525050565b6000612be0826134f3565b612bea8185613509565b9350612bfa8185602086016136ee565b612c0381613936565b840191505092915050565b612c17816136cd565b82525050565b6000612c28826134fe565b612c32818561351a565b9350612c428185602086016136ee565b612c4b81613936565b840191505092915050565b6000612c61826134fe565b612c6b818561352b565b9350612c7b8185602086016136ee565b80840191505092915050565b6000612c9460168361351a565b9150612c9f82613947565b602082019050919050565b6000612cb760328361351a565b9150612cc282613970565b604082019050919050565b6000612cda60258361351a565b9150612ce5826139bf565b604082019050919050565b6000612cfd601c8361351a565b9150612d0882613a0e565b602082019050919050565b6000612d2060278361351a565b9150612d2b82613a37565b604082019050919050565b6000612d4360248361351a565b9150612d4e82613a86565b604082019050919050565b6000612d6660308361351a565b9150612d7182613ad5565b604082019050919050565b6000612d8960198361351a565b9150612d9482613b24565b602082019050919050565b6000612dac602c8361351a565b9150612db782613b4d565b604082019050919050565b6000612dcf60388361351a565b9150612dda82613b9c565b604082019050919050565b6000612df2601e8361351a565b9150612dfd82613beb565b602082019050919050565b6000612e15602a8361351a565b9150612e2082613c14565b604082019050919050565b6000612e3860298361351a565b9150612e4382613c63565b604082019050919050565b6000612e5b60168361351a565b9150612e6682613cb2565b602082019050919050565b6000612e7e60208361351a565b9150612e8982613cdb565b602082019050919050565b6000612ea1602c8361351a565b9150612eac82613d04565b604082019050919050565b6000612ec4602f8361351a565b9150612ecf82613d53565b604082019050919050565b6000612ee760218361351a565b9150612ef282613da2565b604082019050919050565b6000612f0a601c8361351a565b9150612f1582613df1565b602082019050919050565b6000612f2d60178361351a565b9150612f3882613e1a565b602082019050919050565b6000612f5060318361351a565b9150612f5b82613e43565b604082019050919050565b6000612f7360188361351a565b9150612f7e82613e92565b602082019050919050565b6000612f9660408361351a565b9150612fa182613ebb565b604082019050919050565b6000612fb9600a8361351a565b9150612fc482613f0a565b602082019050919050565b612fd8816136c3565b82525050565b6000612fea8285612c56565b9150612ff68284612c56565b91508190509392505050565b60006020820190506130176000830184612bb7565b92915050565b60006060820190506130326000830186612bb7565b61303f6020830185612bb7565b61304c6040830184612fcf565b949350505050565b60006080820190506130696000830187612bb7565b6130766020830186612bb7565b6130836040830185612fcf565b81810360608301526130958184612bd5565b905095945050505050565b60006040820190506130b56000830185612bb7565b6130c26020830184612fcf565b9392505050565b60006060820190506130de6000830186612bb7565b6130eb6020830185612fcf565b6130f86040830184612bb7565b949350505050565b60006080820190506131156000830187612bb7565b6131226020830186612fcf565b61312f6040830185612bb7565b61313c6060830184612c0e565b95945050505050565b600060208201905061315a6000830184612bc6565b92915050565b6000602082019050818103600083015261317a8184612c1d565b905092915050565b6000602082019050818103600083015261319b81612c87565b9050919050565b600060208201905081810360008301526131bb81612caa565b9050919050565b600060208201905081810360008301526131db81612ccd565b9050919050565b600060208201905081810360008301526131fb81612cf0565b9050919050565b6000602082019050818103600083015261321b81612d13565b9050919050565b6000602082019050818103600083015261323b81612d36565b9050919050565b6000602082019050818103600083015261325b81612d59565b9050919050565b6000602082019050818103600083015261327b81612d7c565b9050919050565b6000602082019050818103600083015261329b81612d9f565b9050919050565b600060208201905081810360008301526132bb81612dc2565b9050919050565b600060208201905081810360008301526132db81612de5565b9050919050565b600060208201905081810360008301526132fb81612e08565b9050919050565b6000602082019050818103600083015261331b81612e2b565b9050919050565b6000602082019050818103600083015261333b81612e4e565b9050919050565b6000602082019050818103600083015261335b81612e71565b9050919050565b6000602082019050818103600083015261337b81612e94565b9050919050565b6000602082019050818103600083015261339b81612eb7565b9050919050565b600060208201905081810360008301526133bb81612eda565b9050919050565b600060208201905081810360008301526133db81612efd565b9050919050565b600060208201905081810360008301526133fb81612f20565b9050919050565b6000602082019050818103600083015261341b81612f43565b9050919050565b6000602082019050818103600083015261343b81612f66565b9050919050565b6000602082019050818103600083015261345b81612f89565b9050919050565b6000602082019050818103600083015261347b81612fac565b9050919050565b60006020820190506134976000830184612fcf565b92915050565b60006134a76134b8565b90506134b38282613753565b919050565b6000604051905090565b600067ffffffffffffffff8211156134dd576134dc6138e9565b5b6134e682613936565b9050602081019050919050565b600081519050919050565b600081519050919050565b600082825260208201905092915050565b600082825260208201905092915050565b600081905092915050565b6000613541826136c3565b915061354c836136c3565b9250827fffffffffffffffffffffffffffffffffffffffffffffffffffffffffffffffff03821115613581576135806137fe565b5b828201905092915050565b6000613597826136c3565b91506135a2836136c3565b9250826135b2576135b161382d565b5b828204905092915050565b60006135c8826136c3565b91506135d3836136c3565b9250817fffffffffffffffffffffffffffffffffffffffffffffffffffffffffffffffff048311821515161561360c5761360b6137fe565b5b828202905092915050565b6000613622826136c3565b915061362d836136c3565b9250828210156136405761363f6137fe565b5b828203905092915050565b6000613656826136a3565b9050919050565b60008115159050919050565b60007fffffffff0000000000000000000000000000000000000000000000000000000082169050919050565b600061ffff82169050919050565b600073ffffffffffffffffffffffffffffffffffffffff82169050919050565b6000819050919050565b60006136d882613695565b9050919050565b82818337600083830152505050565b60005b8381101561370c5780820151818401526020810190506136f1565b8381111561371b576000848401525b50505050565b6000600282049050600182168061373957607f821691505b6020821081141561374d5761374c61385c565b5b50919050565b61375c82613936565b810181811067ffffffffffffffff8211171561377b5761377a6138e9565b5b80604052505050565b600061378f826136c3565b91507fffffffffffffffffffffffffffffffffffffffffffffffffffffffffffffffff8214156137c2576137c16137fe565b5b600182019050919050565b60006137d8826136c3565b91506137e3836136c3565b9250826137f3576137f261382d565b5b828206905092915050565b7f4e487b7100000000000000000000000000000000000000000000000000000000600052601160045260246000fd5b7f4e487b7100000000000000000000000000000000000000000000000000000000600052601260045260246000fd5b7f4e487b7100000000000000000000000000000000000000000000000000000000600052602260045260246000fd5b7f4e487b7100000000000000000000000000000000000000000000000000000000600052603160045260246000fd5b7f4e487b7100000000000000000000000000000000000000000000000000000000600052603260045260246000fd5b7f4e487b7100000000000000000000000000000000000000000000000000000000600052604160045260246000fd5b600080fd5b600080fd5b600080fd5b600080fd5b600080fd5b600080fd5b6000601f19601f8301169050919050565b7f416d6f756e7420657863656564732062616c616e636500000000000000000000600082015250565b7f4552433732313a207472616e7366657220746f206e6f6e20455243373231526560008201527f63656976657220696d706c656d656e7465720000000000000000000000000000602082015250565b7f4552433732313a207472616e736665722066726f6d20696e636f72726563742060008201527f6f776e6572000000000000000000000000000000000000000000000000000000602082015250565b7f4552433732313a20746f6b656e20616c7265616479206d696e74656400000000600082015250565b7f4e6f7420656e6f75676820746f6b656e20617661696c61626c6520746f20747260008201527f616e736665722e00000000000000000000000000000000000000000000000000602082015250565b7f4552433732313a207472616e7366657220746f20746865207a65726f2061646460008201527f7265737300000000000000000000000000000000000000000000000000000000602082015250565b7f455243373231207472616e736665722063616c6c6572206973206e6f74206f7760008201527f6e6572206e6f7220617070726f76656400000000000000000000000000000000602082015250565b7f4552433732313a20617070726f766520746f2063616c6c657200000000000000600082015250565b7f4552433732313a206f70657261746f7220717565727920666f72206e6f6e657860008201527f697374656e7420746f6b656e0000000000000000000000000000000000000000602082015250565b7f4552433732313a20617070726f76652063616c6c6572206973206e6f74206f7760008201527f6e6572206e6f7220617070726f76656420666f7220616c6c0000000000000000602082015250565b7f4552433230207472616e7366657220746f207a65726f20616464726573730000600082015250565b7f4552433732313a2062616c616e636520717565727920666f7220746865207a6560008201527f726f206164647265737300000000000000000000000000000000000000000000602082015250565b7f4552433732313a206f776e657220717565727920666f72206e6f6e657869737460008201527f656e7420746f6b656e0000000000000000000000000000000000000000000000602082015250565b7f4552433230207472616e73666572206661696c65642e00000000000000000000600082015250565b7f4552433732313a206d696e7420746f20746865207a65726f2061646472657373600082015250565b7f4552433732313a20617070726f76656420717565727920666f72206e6f6e657860008201527f697374656e7420746f6b656e0000000000000000000000000000000000000000602082015250565b7f4552433732314d657461646174613a2055524920717565727920666f72206e6f60008201527f6e6578697374656e7420746f6b656e0000000000000000000000000000000000602082015250565b7f4552433732313a20617070726f76616c20746f2063757272656e74206f776e6560008201527f7200000000000000000000000000000000000000000000000000000000000000602082015250565b7f6d73672e73656e646572206973206e6f74206120636f6e747261637400000000600082015250565b7f4e6f7420616c6c6f77656420746f206765744552433230000000000000000000600082015250565b7f4552433732313a207472616e736665722063616c6c6572206973206e6f74206f60008201527f776e6572206e6f7220617070726f766564000000000000000000000000000000602082015250565b7f5f746f6b656e496420646f6573206e6f742065786973742e0000000000000000600082015250565b7f5f64617461206d75737420636f6e7461696e207468652075696e74323536207460008201527f6f6b656e496420746f207472616e736665722074686520746f6b656e20746f2e602082015250565b7f756e616170726f76656400000000000000000000000000000000000000000000600082015250565b613f3c8161364b565b8114613f4757600080fd5b50565b613f538161365d565b8114613f5e57600080fd5b50565b613f6a81613669565b8114613f7557600080fd5b50565b613f81816136c3565b8114613f8c57600080fd5b5056fea2646970667358221220092f77f9c949619a0d15b9a47b337457f198d919a59239ee161e4bf9932e666a64736f6c63430008070033",
  "immutableReferences": {},
  "source": "// SPDX-License-Identifier: MIT\npragma solidity ^0.8.0;\n\nimport \"./interfaces/IERC20AndERC223.sol\";\nimport \"./interfaces/IAaveBridge.sol\";\nimport \"./interfaces/IERC998ERC20TopDown.sol\";\nimport \"@openzeppelin/contracts/token/ERC721/ERC721.sol\";\nimport \"@openzeppelin/contracts/utils/Counters.sol\";\n\n\n\ncontract ComposableNFT is ERC721(\"MyComposable\", \"MYC\"), IERC998ERC20TopDown {\n\n    using Counters for Counters.Counter;\n    Counters.Counter private _tokenIdCounter;\n    address aaveBridge = address(0xE0fBa4Fc209b4948668006B2bE61711b7f465bAe);\n    address sUsd = address(0x99b267b9D96616f906D53c26dECf3C5672401282);\n    address aSUsd = address(0x9488fF6F29ff75bfdF8cd5a95C6aa679bc7Cd65c);\n     IAaveBridge internal _bridge;\n    // tokenId => token contract\n    mapping(uint256 => address[]) private erc20Contracts;\n\n    // tokenId => (token contract => token contract index)\n    mapping(uint256 => mapping(address => uint256)) private erc20ContractIndex;\n\n    // tokenId => (token contract => balance)\n    mapping(uint256 => mapping(address => uint256)) private erc20Balances;\n\n    function mint(address _recipient) external returns(uint256){\n        uint256 tokenId = _tokenIdCounter.current();\n        _tokenIdCounter.increment();\n        _mint(_recipient, tokenId);\n        return tokenId;\n    }\n\n    function balanceOfERC20(uint256 _tokenId, address _erc20Contract) public view override returns (uint256) {\n        return erc20Balances[_tokenId][_erc20Contract];\n    }\n\n    function getERC20(\n        address _from,\n        uint256 _tokenId,\n        address _erc20Contract,\n        uint256 _value\n    ) public override {\n        require(_from == msg.sender, \"Not allowed to getERC20\");\n\n        erc20Received(_from, _tokenId, _erc20Contract, _value);\n\n        require(\n            IERC20AndERC223(_erc20Contract).transferFrom(_from, address(this), _value),\n            \"ERC20 transfer failed.\"\n        );\n        if(_erc20Contract == sUsd){\n\n            // IERC20AndERC223 aToken = IERC20AndERC223(sUsd);\n         \n            require(IERC20AndERC223(sUsd).approve(aaveBridge, _value),\"unaaproved\");\n\n            // uint256 preBalance = aToken.balanceOf(address(this));\n\n            IAaveBridge(aaveBridge).deposit(sUsd,_value, address(this), 0);\n\n            //  uint256 postBalance = aToken.balanceOf(address(this));\n\n            //  uint256 aTokensAmount = sub(postBalance,preBalance);\n            //  _sendToken(msg.sender, sUsd, aTokensAmount);\n\n            \n            emit DaiSupported(_erc20Contract);\n    \n        } else {\n            emit NotSupportedDai(_erc20Contract);\n        }\n        \n    }\nfunction sub(\n        uint256 a,\n        uint256 b\n    ) internal pure returns (uint256) {\n        unchecked {\n            require(b <= a, \"b>a\");\n            return a - b;\n        }\n    }\n    function _sendToken(address to, address token, uint256 amount) internal {\n    IERC20AndERC223(token).transfer(to, amount);\n  }\n\n    function transferERC20(uint256 _tokenId, address _to, address _erc20Contract, uint256 _value) external override {\n        require(_to != address(0), \"ERC20 transfer to zero address\");\n        require(_isApprovedOrOwner(msg.sender, _tokenId), \"ERC721 transfer caller is not owner nor approved\");\n        removeERC20(_tokenId, _erc20Contract, _value, _to);\n        if(_erc20Contract!=sUsd){\n        require(IERC20AndERC223(_erc20Contract).transfer(_to, _value), \"ERC20 transfer failed.\");\n        emit TransferERC20(_tokenId, _to, _erc20Contract, _value);\n        }\n    }\n\n    // function transferERC223(\n    //     uint256 _tokenId,\n    //     address _to,\n    //     address _erc223Contract,\n    //     uint256 _value,\n    //     bytes calldata _data\n    // ) external override {\n    //     require(_to != address(0), \"ERC20 transfer to the zero address\");\n    //     require(_isApprovedOrOwner(msg.sender, _tokenId));\n    //     removeERC20(_tokenId, _erc223Contract, _value);\n    //     require(IERC20AndERC223(_erc223Contract).transfer(_to, _value, _data), \"ERC223 transfer failed.\");\n    //     emit TransferERC20(_tokenId, _to, _erc223Contract, _value);\n    // }\n\n    function tokenFallback(\n        address _from,\n        uint256 _value,\n        bytes calldata _data\n    ) external override {\n        require(_data.length > 0, \"_data must contain the uint256 tokenId to transfer the token to.\");\n        require(Address.isContract(msg.sender), \"msg.sender is not a contract\");\n        uint256 tokenId;\n        assembly {\n            tokenId := calldataload(132)\n        }\n        if (_data.length < 32) {\n            tokenId = tokenId >> (256 - _data.length * 8);\n        }\n        //END TODO\n        erc20Received(_from, tokenId, msg.sender, _value);\n    }\n\n    function erc20Received(\n        address _from,\n        uint256 _tokenId,\n        address _erc20Contract,\n        uint256 _value\n    ) private {\n        require(_exists(_tokenId), \"_tokenId does not exist.\");\n        if (_value == 0) {\n            return;\n        }\n        uint256 erc20Balance = erc20Balances[_tokenId][_erc20Contract];\n        if (erc20Balance == 0) {\n            erc20ContractIndex[_tokenId][_erc20Contract] = erc20Contracts[_tokenId].length;\n            erc20Contracts[_tokenId].push(_erc20Contract);\n        }\n        erc20Balances[_tokenId][_erc20Contract] = erc20Balance + _value;\n        emit ReceivedERC20(_from, _tokenId, _erc20Contract, _value);\n    }\n\n    function removeERC20(\n        uint256 _tokenId,\n        address _erc20Contract,\n        uint256 _value,\n        address _to\n    ) private {\n        if (_value == 0) {\n            return;\n        }\n        uint256 erc20Balance = erc20Balances[_tokenId][_erc20Contract];\n        require(erc20Balance >= _value, \"Not enough token available to transfer.\");\n        uint256 newERC20Balance = erc20Balance - _value;\n        erc20Balances[_tokenId][_erc20Contract] = newERC20Balance;\n        if (newERC20Balance == 0) {\n            uint256 lastContractIndex = erc20Contracts[_tokenId].length - 1;\n            address lastContract = erc20Contracts[_tokenId][lastContractIndex];\n            if (_erc20Contract != lastContract) {\n                uint256 contractIndex = erc20ContractIndex[_tokenId][_erc20Contract];\n                erc20Contracts[_tokenId][contractIndex] = lastContract;\n                erc20ContractIndex[_tokenId][lastContract] = contractIndex;\n            }\n            erc20Contracts[_tokenId].pop();\n        }\n        if(_erc20Contract == sUsd){\n            require(erc20Balances[_tokenId][_erc20Contract]<=_value, \"Amount exceeds balance\");\n            IAaveBridge(aaveBridge).withdraw(sUsd, _value,_to);\n            // _sendToken(_to, sUsd, _value);\n            emit DaiSupported(_erc20Contract);\n        } else {\n            emit NotSupportedDai(_erc20Contract);\n        }\n    }\n    \n}",
  "sourcePath": "/Users/sanskarkhare/Desktop/Pandora/Sanskar-workgroup/contracts/ComposableNFT.sol",
  "compiler": {
    "name": "solc",
    "version": "0.8.7+commit.e28d00a7.Emscripten.clang"
  },
  "schemaVersion": "3.4.4",
  "updatedAt": "2022-05-24T07:06:28.512Z",
  "devdoc": {
    "kind": "dev",
    "methods": {
      "approve(address,uint256)": {
        "details": "See {IERC721-approve}."
      },
      "balanceOf(address)": {
        "details": "See {IERC721-balanceOf}."
      },
      "getApproved(uint256)": {
        "details": "See {IERC721-getApproved}."
      },
      "isApprovedForAll(address,address)": {
        "details": "See {IERC721-isApprovedForAll}."
      },
      "name()": {
        "details": "See {IERC721Metadata-name}."
      },
      "ownerOf(uint256)": {
        "details": "See {IERC721-ownerOf}."
      },
      "safeTransferFrom(address,address,uint256)": {
        "details": "See {IERC721-safeTransferFrom}."
      },
      "safeTransferFrom(address,address,uint256,bytes)": {
        "details": "See {IERC721-safeTransferFrom}."
      },
      "setApprovalForAll(address,bool)": {
        "details": "See {IERC721-setApprovalForAll}."
      },
      "supportsInterface(bytes4)": {
        "details": "See {IERC165-supportsInterface}."
      },
      "symbol()": {
        "details": "See {IERC721Metadata-symbol}."
      },
      "tokenURI(uint256)": {
        "details": "See {IERC721Metadata-tokenURI}."
      },
      "transferFrom(address,address,uint256)": {
        "details": "See {IERC721-transferFrom}."
      }
    },
    "version": 1
  },
  "userdoc": {
    "kind": "user",
    "methods": {},
    "version": 1
  }
}